S018000054696D6572436F756E7465725F636C312E73726563CC
S113000045C0000060C000005EC000005CC000008D
S11300105AC0000058C0000056C0000054C0000080
S113002052C0000050C000004EC000004CC0000090
S11300304AC0000048C0000046C0000044C00000A0
S113004042C0000040C000003EC000003CC00000B0
S11300503AC000005AC0000036C0000034C000009E
S113006032C0000030C000002EC000002CC00000D0
S11300702AC0000028C0000026C0000024C00000E0
S113008022C0000020C000001EC0000011241FBEBA
S1130090CFEFD0E1DEBFCDBF11E0A0E0B1E0E6E9F3
S11300A0F8E000E00BBF02C007900D92AA37B10739
S11300B0D9F721E0AAE7B1E001C01D92A038B20748
S11300C0E1F76BD0E6C39CCF87B3806187BB08950B
S11300D097B1906497B996B1976096B996B19068C4
S11300E096B996B1986096B997B1907E892B87B9E5
S11300F07894089583B7876083BF83B7806283BF92
S113010083B7886483BF11BE08951F920F920FB600
S11301100F9211240BB60F922F933F934F935F933B
S11301206F937F938F939F93AF93BF93CF93DF93FB
S1130130EF93FF93C4B1D5B18C2F9D2F99230CF469
S11301400396959587959595879581BF8CE191E068
S11301509F938F93AED0DF93CF9386E291E09F93EA
S11301608F93A7D00F900F900F900F900F900F9038
S1130170FF91EF91DF91CF91BF91AF919F918F91BB
S11301807F916F915F914F913F912F910F900BBE93
S11301900F900FBE0F901F901895EAE7F1E08EE0E4
S11301A091E09383828380E091E0918380838CDF6C
S11301B060E875E280E090E016D080E089DF9ADFA5
S11301C08FE591E089D08FE591E086D083E391E0DB
S11301D083D081E691E080D08FE591E07DD086B137
S11301E0806486B9FCCFDC01CB01880F991FAA1F5C
S11301F0BB1F880F991FAA1FBB1F9C01AD01220FB3
S1130200331F441F551F60E074E284EF90E02FD049
S1130210BA01A9014150510961097109BB27A72FEE
S1130220962F852F8093980040939900EBE9F0E096
S1130230808182608083EDE9F0E080818660808344
S1130240EAE9F0E080818061808380818860808336
S1130250089580919B008823E4F780919C00089581
S113026090919B0095FFFCCF80939C000895A1E2A0
S11302701A2EAA1BBB1BFD010DC0AA1FBB1FEE1F1C
S1130280FF1FA217B307E407F50720F0A21BB30B67
S1130290E40BF50B661F771F881F991F1A9469F7E3
S11302A060957095809590959B01AC01BD01CF013F
S11302B00895CF93DF93CDB7DEB7AE014B5F5F4FA9
S11302C0FA0161917191AF0180917C0190917D015E
S11302D033D0DF91CF9108950F931F93CF93DF9382
S11302E0E0917C01F0917D01238121FF1BC08C01F1
S11302F0D0E0C0E0F80181918F0160917C017091A0
S11303007D01DB011896ED91FC911997882331F05A
S11303100995892B79F3DFEFCFEFECCF8AE00995CC
S1130320892B19F08FEF9FEF02C08D2F9C2FDF9147
S1130330CF911F910F9108952F923F924F925F9208
S11303406F927F928F929F92AF92BF92CF92DF92E1
S1130350EF92FF920F931F93CF93DF93CDB7DEB746
S11303602B970FB6F894DEBF0FBECDBF6C017B0197
S11303708A01FC0117821682838181FFBFC1CE01ED
S113038001963C01F6019381F70193FD859193FF5A
S113039081917F01882309F4ADC1853239F493FD3D
S11303A0859193FF81917F01853221F4B60190E01C
S11303B0D6D1E8CF912C212C312CFFE1F315D8F0C4
S11303C08B3279F038F4803279F08332A1F4232D22
S11303D020611DC08D3261F0803369F4232D2160CA
S11303E016C0832D8260382EE32DE4603E2E2AC091
S11303F0F32DF8601DC037FC2DC020ED280F2A30E6
S113040040F08E32B9F436FC75C1232D2064322EAF
S113041019C036FE06C08AE0989E200D1124922E43
S113042011C0EAE02E9E200D1124222EF32DF0623D
S11304303F2E08C08C3621F4832D8068382E02C0EC
S1130440883641F4F70193FD859193FF81917F01F3
S11304508111B3CF982F9F7D9554933028F40C5F6E
S11304601F4F9FE399830DC0833631F0833771F0BA
S1130470833509F055C020C0F801808189830E5F5F
S11304801F4F88248394912C530112C02801F2E059
S11304904F0E511CF801A080B18036FE03C0692DB7
S11304A070E002C06FEF7FEFC5014ED14C018201B5
S11304B0F32DFF773F2E15C0280122E0420E511C78
S11304C0F801A080B18036FE03C0692D70E002C03F
S11304D06FEF7FEFC5012DD14C01F32DF0683F2E56
S11304E0820133FC19C0822D90E088169906A0F48D
S11304F0B60180E290E033D12A94F5CFF50137FCC0
S1130500859137FE81915F01B60190E028D12110D9
S11305102A9421E0821A91088114910479F7E1C0A8
S1130520843611F0893639F5F80137FE07C0608149
S11305307181828193810C5F1F4F08C0608171813A
S1130540072E000C880B990B0E5F1F4FF32DFF76BF
S11305503F2E97FF09C090958095709561957F4FC8
S11305608F4F9F4FF0683F2E2AE030E0A30133D134
S1130570882E861844C0853731F4232D2F7EB22E61
S11305802AE030E025C0932D997FB92E8F36C1F033
S113059018F4883579F0AEC0803719F0883721F027
S11305A0A9C0E92FE061BE2EB4FE0DC0FB2DF4609E
S11305B0BF2E09C034FE0AC0292F2660B22E06C001
S11305C028E030E005C020E130E002C020E132E064
S11305D0F801B7FE07C060817181828193810C5F4D
S11305E01F4F06C06081718180E090E00E5F1F4F55
S11305F0A301F1D0882E8618FB2DFF773F2E36FEFF
S11306000DC0232D2E7FA22E891458F434FE0BC066
S113061032FC09C0832D8E7EA82E05C0B82CA32CD5
S113062003C0B82C01C0B92CA4FE0FC0FE01E80D14
S1130630F11D8081803321F49A2D997EA92E09C061
S1130640A2FE06C0B394B39404C08A2D867809F040
S1130650B394A3FC10C0A0FE06C0B21480F4280C0E
S1130660922C9B180DC0B21458F4B60180E290E0AD
S113067076D0B394F8CFB21418F42B1802C0982C87
S1130680212CA4FE0FC0B60180E390E068D0A2FE46
S113069016C0A1FC03C088E790E002C088E590E0A2
S11306A0B6010CC08A2D867851F0A1FE02C08BE2FF
S11306B001C080E2A7FC8DE2B60190E050D089141D
S11306C030F4B60180E390E04AD09A94F8CF8A944B
S11306D0F301E80DF11D8081B60190E040D0811056
S11306E0F6CF222009F44ECEB60180E290E037D056
S11306F02A94F7CFF6018681978102C08FEF9FEF8E
S11307002B960FB6F894DEBF0FBECDBFDF91CF910D
S11307101F910F91FF90EF90DF90CF90BF90AF901B
S11307209F908F907F906F905F904F903F902F900D
S11307300895FC010590615070400110D8F7809530
S113074090958E0F9F1F0895FC0161507040019099
S11307500110D8F7809590958E0F9F1F08950F93E1
S11307601F93CF93DF93FB01238121FD03C08FEF00
S11307709FEF2CC022FF16C046815781248135810A
S11307804217530744F4A081B1819D012F5F3F4F6D
S1130790318320838C93268137812F5F3F4F3783AA
S11307A0268314C08B01EC01FB010084F185E02D4C
S11307B00995892BE1F6D80116968D919C9117978E
S11307C0019617969C938E931697CE01DF91CF9145
S11307D01F910F910895FA01AA27283051F1203171
S11307E081F1E8946F936E7F6E5F7F4F8F4F9F4FC1
S11307F0AF4FB1E03ED0B4E03CD0670F781F891F03
S11308009A1FA11D680F791F8A1F911DA11D6A0FD0
S1130810711D811D911DA11D20D009F468943F9183
S11308202AE0269F11243019305D3193DEF6CF0182
S11308300895462F4770405D4193B3E00FD0C9F748
S1130840F6CF462F4F70405D4A3318F0495D31FDB5
S11308504052419302D0A9F7EACFB4E0A695979508
S1130860879577956795BA95C9F7009761057105DE
S113087008959B01AC010A2E069457954795379528
S11308802795BA95C9F7620F731F841F951FA01D82
S10908900895F894FFCF67
S11308960000000100000000000029010000000023
S11308A60002000000003001000000004144432023
S11308B6656E642E0900414443203D202534640DB1
S11308C60A0A00094D796F6E676A6920556E697662
S11308D66572736974792C2044657074206F662080
S11308E6456C656374726F6E696320456E672E0D81
S11308F60009092020363031393137393820EAB930
S10D090680EC9881ECB0AC0D000009
S9030000FC
