:1000000045C0000060C000005EC000005CC0000091
:100010005AC0000058C0000056C0000054C0000084
:1000200052C0000050C000004EC000004CC0000094
:100030004AC0000048C0000046C0000044C00000A4
:10004000D8C0000040C000003EC000003CC000001E
:100050003AC000007FC0000036C0000034C000007D
:1000600032C0000030C000002EC000002CC00000D4
:100070002AC0000028C0000026C0000024C00000E4
:1000800022C0000020C000001EC0000011241FBEBE
:10009000CFEFD0E1DEBFCDBF11E0A0E0B1E0E8EEF0
:1000A000FBE000E00BBF02C007900D92A23AB1073F
:1000B000D9F721E0A2EAB1E001C01D92AA3AB20745
:1000C000E1F7CED08FC59CCF96B1976096B996B127
:1000D000906896B996B1986096B997B1907E892B41
:1000E00087B97894089583B7856083BF87B78160A7
:1000F00087BF0895CF93DF93EC016091A2017091C7
:10010000A30180E090E044D12DEB37E346E05BE3D0
:10011000A5D120E030E04AE754E4A0D108D16C1723
:100120007D0794F01092A3011092A2017F936F9328
:100130008CE191E09F938F9365D20F900F900F9079
:100140000F9081E090E003C0CEDF80E090E0DF918F
:10015000CF9108951F920F920FB60F9211240BB6F4
:100160000F922F933F934F935F936F937F938F9350
:100170009F93AF93BF93CF93EF93FF93E4B1F5B108
:100180009F012153310912F420E030E0C90165E0FC
:1001900070E0EFD1462FC72F019763E070E0E9D1FF
:1001A0007F936F93CF934F933F932F93FF93EF934F
:1001B0008BE291E09F938F9325D28DB79EB70A96DD
:1001C0000FB6F8949EBF0FBE8DBFFF91EF91CF91F8
:1001D000BF91AF919F918F917F916F915F914F915F
:1001E0003F912F910F900BBE0F900FBE0F901F905D
:1001F00018951F920F920FB60F9211240BB60F9203
:100200002F933F934F935F936F937F938F939F931E
:10021000AF93BF93EF93FF938091A2019091A301BD
:1002200001969093A3018093A20184E690E062DF9F
:10023000892B19F086B1806486B9FF91EF91BF9147
:10024000AF919F918F917F916F915F914F913F916E
:100250002F910F900BBE0F900FBE0F901F9018950F
:10026000E4EAF1E08EE091E09383828380E091E024
:100270009183808360E875E280E090E014D080E0B4
:1002800023DF31DF789487E891E0CFD187E891E0F0
:10029000CCD18BE591E0C9D189E891E0C6D187E85E
:1002A00091E0C3D1FFCFDC01CB01880F991FAA1FBA
:1002B000BB1F880F991FAA1FBB1F9C01AD01220FF6
:1002C000331F441F551F60E074E284EF90E064D157
:1002D000BA01A9014150510961097109BB27A72F32
:1002E000962F852F8093980040939900EBE9F0E0DA
:1002F000808182608083EDE9F0E080818660808388
:10030000EAE9F0E080818061808380818860808379
:10031000089580919B008823E4F780919C000895C4
:1003200090919B0095FFFCCF80939C00089504D092
:100330006894B1118DC0089570D088F09F5790F0E7
:10034000B92F9927B751A0F0D1F0660F771F881FFA
:10035000991F1AF0BA95C9F712C0B13081F077D061
:10036000B1E0089574C0672F782F8827B85F39F0FF
:10037000B93FCCF3869577956795B395D9F73EF459
:1003800090958095709561957F4F8F4F9F4F089501
:10039000E89409C097FB3EF490958095709561951F
:1003A0007F4F8F4F9F4F9923A9F0F92F96E9BB27D5
:1003B0009395F695879577956795B795F111F8CF51
:1003C000FAF4BB0F11F460FF1BC06F5F7F4F8F4FBC
:1003D0009F4F16C0882311F096E911C0772321F0B2
:1003E0009EE8872F762F05C0662371F096E8862F4A
:1003F00070E060E02AF09A95660F771F881FDAF7A1
:10040000880F9695879597F9089557FD9058440F52
:10041000551F59F05F3F71F04795880F97FB991F63
:1004200061F09F3F79F08795089512161306140620
:10043000551FF2CF4695F1DF08C0161617061806AD
:10044000991FF1CF86957105610508940895E89488
:10045000BB2766277727CB0197F908950BD078C083
:1004600069D028F06ED018F0952309F05AC05FC00B
:100470001124EECFCADFA0F3959FD1F3950F50E082
:10048000551F629FF001729FBB27F00DB11D639F46
:10049000AA27F00DB11DAA1F649F6627B00DA11DEC
:1004A000661F829F2227B00DA11D621F739FB00D92
:1004B000A11D621F839FA00D611D221F749F332702
:1004C000A00D611D231F849F600D211D822F762F9B
:1004D0006A2F11249F5750408AF0E1F088234AF098
:1004E000EE0FFF1FBB1F661F771F881F91505040E4
:1004F000A9F79E3F510570F014C0AACF5F3FECF3FF
:10050000983EDCF3869577956795B795F795E795CF
:100510009F5FC1F7FE2B880F911D9695879597F9E0
:10052000089597F99F6780E870E060E008959FEF75
:1005300080EC089500240A9416161706180609067A
:10054000089500240A941216130614060506089549
:10055000092E0394000C11F4882352F0BB0F40F4D1
:10056000BF2B11F460FF04C06F5F7F4F8F4F9F4F11
:10057000089597FB072E16F4009406D077FD08D057
:100580002DD007FC05D03EF4909581959F4F08959E
:10059000709561957F4F0895A1E21A2EAA1BBB1B8F
:1005A000FD010DC0AA1FBB1FEE1FFF1FA217B3073F
:1005B000E407F50720F0A21BB30BE40BF50B661F55
:1005C000771F881F991F1A9469F760957095809519
:1005D00090959B01AC01BD01CF010895AA1BBB1BE7
:1005E00051E107C0AA1FBB1FA617B70710F0A61B33
:1005F000B70B881F991F5A95A9F780959095BC0154
:10060000CD010895CF93DF93CDB7DEB7AE014B5F39
:100610005F4FFA0161917191AF018091A6019091B4
:10062000A70133D0DF91CF9108950F931F93CF93FC
:10063000DF93E091A601F091A701238121FF1BC068
:100640008C01D0E0C0E0F80181918F016091A6019A
:100650007091A701DB011896ED91FC911997882301
:1006600031F00995892B79F3DFEFCFEFECCF8AE0FA
:100670000995892B19F08FEF9FEF02C08D2F9C2FCA
:10068000DF91CF911F910F9108952F923F924F923A
:100690005F926F927F928F929F92AF92BF92CF9212
:1006A000DF92EF92FF920F931F93CF93DF93CDB71B
:1006B000DEB72B970FB6F894DEBF0FBECDBF6C012F
:1006C0007B018A01FC0117821682838181FFBFC1F1
:1006D000CE0101963C01F6019381F70193FD8591CE
:1006E00093FF81917F01882309F4ADC1853239F4EC
:1006F00093FD859193FF81917F01853221F4B601AD
:1007000090E0D6D1E8CF912C212C312CFFE1F315CC
:10071000D8F08B3279F038F4803279F08332A1F45A
:10072000232D20611DC08D3261F0803369F4232DAB
:10073000216016C0832D8260382EE32DE4603E2EAA
:100740002AC0F32DF8601DC037FC2DC020ED280F06
:100750002A3040F08E32B9F436FC75C1232D206466
:10076000322E19C036FE06C08AE0989E200D112454
:10077000922E11C0EAE02E9E200D1124222EF32D80
:10078000F0623F2E08C08C3621F4832D8068382E0D
:1007900002C0883641F4F70193FD859193FF819162
:1007A0007F018111B3CF982F9F7D9554933028F40A
:1007B0000C5F1F4F9FE399830DC0833631F0833761
:1007C00071F0833509F055C020C0F801808189831C
:1007D0000E5F1F4F88248394912C530112C028016F
:1007E000F2E04F0E511CF801A080B18036FE03C02C
:1007F000692D70E002C06FEF7FEFC5014ED14C0153
:100800008201F32DFF773F2E15C0280122E0420E12
:10081000511CF801A080B18036FE03C0692D70E044
:1008200002C06FEF7FEFC5012DD14C01F32DF068B1
:100830003F2E820133FC19C0822D90E08816990664
:10084000A0F4B60180E290E033D12A94F5CFF5010F
:1008500037FC859137FE81915F01B60190E028D188
:1008600021102A9421E0821A91088114910479F7C9
:10087000E1C0843611F0893639F5F80137FE07C03A
:1008800060817181828193810C5F1F4F08C06081FC
:100890007181072E000C880B990B0E5F1F4FF32DF3
:1008A000FF763F2E97FF09C09095809570956195D2
:1008B0007F4F8F4F9F4FF0683F2E2AE030E0A3011B
:1008C00033D1882E861844C0853731F4232D2F7EEE
:1008D000B22E2AE030E025C0932D997FB92E8F36B5
:1008E000C1F018F4883579F0AEC0803719F0883738
:1008F00021F0A9C0E92FE061BE2EB4FE0DC0FB2D92
:10090000F460BF2E09C034FE0AC0292F2660B22E23
:1009100006C028E030E005C020E130E002C020E160
:1009200032E0F801B7FE07C0608171818281938156
:100930000C5F1F4F06C06081718180E090E00E5F08
:100940001F4FA301F1D0882E8618FB2DFF773F2E75
:1009500036FE0DC0232D2E7FA22E891458F434FEAE
:100960000BC032FC09C0832D8E7EA82E05C0B82C8A
:10097000A32C03C0B82C01C0B92CA4FE0FC0FE01EB
:10098000E80DF11D8081803321F49A2D997EA92EE6
:1009900009C0A2FE06C0B394B39404C08A2D867821
:1009A00009F0B394A3FC10C0A0FE06C0B21480F4FA
:1009B000280C922C9B180DC0B21458F4B60180E29A
:1009C00090E076D0B394F8CFB21418F42B1802C08C
:1009D000982C212CA4FE0FC0B60180E390E068D0D3
:1009E000A2FE16C0A1FC03C088E790E002C088E523
:1009F00090E0B6010CC08A2D867851F0A1FE02C0AD
:100A00008BE201C080E2A7FC8DE2B60190E050D0FD
:100A1000891430F4B60180E390E04AD09A94F8CF7C
:100A20008A94F301E80DF11D8081B60190E040D079
:100A30008110F6CF222009F44ECEB60180E290E07C
:100A400037D02A94F7CFF6018681978102C08FEFC5
:100A50009FEF2B960FB6F894DEBF0FBECDBFDF9190
:100A6000CF911F910F91FF90EF90DF90CF90BF90AB
:100A7000AF909F908F907F906F905F904F903F903E
:100A80002F900895FC010590615070400110D8F737
:100A9000809590958E0F9F1F0895FC0161507040C6
:100AA00001900110D8F7809590958E0F9F1F0895A3
:100AB0000F931F93CF93DF93FB01238121FD03C08D
:100AC0008FEF9FEF2CC022FF16C0468157812481F3
:100AD00035814217530744F4A081B1819D012F5FF6
:100AE0003F4F318320838C93268137812F5F3F4F87
:100AF0003783268314C08B01EC01FB010084F18550
:100B0000E02D0995892BE1F6D80116968D919C91DF
:100B10001797019617969C938E931697CE01DF91A7
:100B2000CF911F910F910895FA01AA27283051F112
:100B3000203181F1E8946F936E7F6E5F7F4F8F4F0E
:100B40009F4FAF4FB1E03ED0B4E03CD0670F781F6D
:100B5000891F9A1FA11D680F791F8A1F911DA11D52
:100B60006A0F711D811D911DA11D20D009F468948B
:100B70003F912AE0269F11243019305D3193DEF633
:100B8000CF010895462F4770405D4193B3E00FD0E9
:100B9000C9F7F6CF462F4F70405D4A3318F0495DD4
:100BA00031FD4052419302D0A9F7EACFB4E0A695B7
:100BB0009795879577956795BA95C9F700976105D9
:100BC000710508959B01AC010A2E0694579547952F
:100BD00037952795BA95C9F7620F731F841F951F24
:080BE000A01D0895F894FFCF59
:100BE8000000000100000000000089010000000072
:100BF8000002000000009001000000000D25646D57
:100C08007320EAB2BDEAB3BC2C2000414443203D26
:100C1800202534640972656164203D202534640907
:100C2800313030EC9B90203D20253264093130EC86
:100C38009B90203D202532640D0A00094D796F6E86
:100C4800676A6920556E69766572736974792C20B4
:100C580044657074206F6620456C656374726F6EAE
:100C6800696320456E672E0D000909202036303152
:100C7800393137393820EAB980EC9881ECB0AC0DBD
:020C880000006A
:00000001FF
